{
  "contractName": "Marketplace",
  "abi": [
    {
      "inputs": [],
      "payable": false,
      "stateMutability": "nonpayable",
      "type": "constructor"
    },
    {
      "anonymous": false,
      "inputs": [
        {
          "indexed": false,
          "internalType": "uint256",
          "name": "id",
          "type": "uint256"
        },
        {
          "indexed": false,
          "internalType": "string",
          "name": "name",
          "type": "string"
        },
        {
          "indexed": false,
          "internalType": "uint256",
          "name": "bed",
          "type": "uint256"
        },
        {
          "indexed": false,
          "internalType": "uint256",
          "name": "bath",
          "type": "uint256"
        },
        {
          "indexed": false,
          "internalType": "uint256",
          "name": "acreLot",
          "type": "uint256"
        },
        {
          "indexed": false,
          "internalType": "uint256",
          "name": "housesize",
          "type": "uint256"
        },
        {
          "indexed": false,
          "internalType": "string",
          "name": "houseAddress",
          "type": "string"
        },
        {
          "indexed": false,
          "internalType": "string",
          "name": "image",
          "type": "string"
        },
        {
          "indexed": false,
          "internalType": "uint256",
          "name": "price",
          "type": "uint256"
        },
        {
          "indexed": false,
          "internalType": "address payable",
          "name": "owner",
          "type": "address"
        },
        {
          "indexed": false,
          "internalType": "bool",
          "name": "purchased",
          "type": "bool"
        }
      ],
      "name": "ProductCreated",
      "type": "event"
    },
    {
      "anonymous": false,
      "inputs": [
        {
          "indexed": false,
          "internalType": "uint256",
          "name": "id",
          "type": "uint256"
        },
        {
          "indexed": false,
          "internalType": "string",
          "name": "name",
          "type": "string"
        },
        {
          "indexed": false,
          "internalType": "uint256",
          "name": "bed",
          "type": "uint256"
        },
        {
          "indexed": false,
          "internalType": "uint256",
          "name": "bath",
          "type": "uint256"
        },
        {
          "indexed": false,
          "internalType": "uint256",
          "name": "acreLot",
          "type": "uint256"
        },
        {
          "indexed": false,
          "internalType": "uint256",
          "name": "housesize",
          "type": "uint256"
        },
        {
          "indexed": false,
          "internalType": "string",
          "name": "houseAddress",
          "type": "string"
        },
        {
          "indexed": false,
          "internalType": "string",
          "name": "image",
          "type": "string"
        },
        {
          "indexed": false,
          "internalType": "uint256",
          "name": "price",
          "type": "uint256"
        },
        {
          "indexed": false,
          "internalType": "address payable",
          "name": "owner",
          "type": "address"
        },
        {
          "indexed": false,
          "internalType": "bool",
          "name": "purchased",
          "type": "bool"
        }
      ],
      "name": "ProductPurchased",
      "type": "event"
    },
    {
      "constant": true,
      "inputs": [],
      "name": "name",
      "outputs": [
        {
          "internalType": "string",
          "name": "",
          "type": "string"
        }
      ],
      "payable": false,
      "stateMutability": "view",
      "type": "function"
    },
    {
      "constant": true,
      "inputs": [],
      "name": "productCount",
      "outputs": [
        {
          "internalType": "uint256",
          "name": "",
          "type": "uint256"
        }
      ],
      "payable": false,
      "stateMutability": "view",
      "type": "function"
    },
    {
      "constant": true,
      "inputs": [
        {
          "internalType": "uint256",
          "name": "",
          "type": "uint256"
        }
      ],
      "name": "products",
      "outputs": [
        {
          "internalType": "uint256",
          "name": "id",
          "type": "uint256"
        },
        {
          "internalType": "string",
          "name": "name",
          "type": "string"
        },
        {
          "internalType": "uint256",
          "name": "bed",
          "type": "uint256"
        },
        {
          "internalType": "uint256",
          "name": "bath",
          "type": "uint256"
        },
        {
          "internalType": "uint256",
          "name": "acreLot",
          "type": "uint256"
        },
        {
          "internalType": "uint256",
          "name": "housesize",
          "type": "uint256"
        },
        {
          "internalType": "string",
          "name": "houseAddress",
          "type": "string"
        },
        {
          "internalType": "string",
          "name": "image",
          "type": "string"
        },
        {
          "internalType": "uint256",
          "name": "price",
          "type": "uint256"
        },
        {
          "internalType": "address payable",
          "name": "owner",
          "type": "address"
        },
        {
          "internalType": "bool",
          "name": "purchased",
          "type": "bool"
        }
      ],
      "payable": false,
      "stateMutability": "view",
      "type": "function"
    },
    {
      "constant": false,
      "inputs": [
        {
          "internalType": "string",
          "name": "_name",
          "type": "string"
        },
        {
          "internalType": "uint256",
          "name": "_bed",
          "type": "uint256"
        },
        {
          "internalType": "uint256",
          "name": "_bath",
          "type": "uint256"
        },
        {
          "internalType": "uint256",
          "name": "_acreLot",
          "type": "uint256"
        },
        {
          "internalType": "uint256",
          "name": "_housesize",
          "type": "uint256"
        },
        {
          "internalType": "string",
          "name": "_houseAddress",
          "type": "string"
        },
        {
          "internalType": "string",
          "name": "_image",
          "type": "string"
        },
        {
          "internalType": "uint256",
          "name": "_price",
          "type": "uint256"
        }
      ],
      "name": "createProduct",
      "outputs": [],
      "payable": false,
      "stateMutability": "nonpayable",
      "type": "function"
    },
    {
      "constant": false,
      "inputs": [
        {
          "internalType": "uint256",
          "name": "_id",
          "type": "uint256"
        }
      ],
      "name": "purchaseProduct",
      "outputs": [],
      "payable": true,
      "stateMutability": "payable",
      "type": "function"
    }
  ],
  "bytecode": "0x608060405260006001553480156200001657600080fd5b506040518060400160405280600e81526020017f5265616c6573746174652061707000000000000000000000000000000000000081525060009080519060200190620000649291906200006b565b506200011a565b828054600181600116156101000203166002900490600052602060002090601f016020900481019282601f10620000ae57805160ff1916838001178555620000df565b82800160010185558215620000df579182015b82811115620000de578251825591602001919060010190620000c1565b5b509050620000ee9190620000f2565b5090565b6200011791905b8082111562000113576000816000905550600101620000f9565b5090565b90565b611429806200012a6000396000f3fe60806040526004361061004a5760003560e01c806306fdde031461004f57806338e76a03146100df5780637acc0b201461010d578063b888c40814610301578063e0f6ef871461052a575b600080fd5b34801561005b57600080fd5b50610064610555565b6040518080602001828103825283818151815260200191508051906020019080838360005b838110156100a4578082015181840152602081019050610089565b50505050905090810190601f1680156100d15780820380516001836020036101000a031916815260200191505b509250505060405180910390f35b61010b600480360360208110156100f557600080fd5b81019080803590602001909291905050506105f3565b005b34801561011957600080fd5b506101466004803603602081101561013057600080fd5b8101908080359060200190929190505050610cec565b604051808c8152602001806020018b81526020018a815260200189815260200188815260200180602001806020018781526020018673ffffffffffffffffffffffffffffffffffffffff1673ffffffffffffffffffffffffffffffffffffffff1681526020018515151515815260200184810384528e818151815260200191508051906020019080838360005b838110156101ee5780820151818401526020810190506101d3565b50505050905090810190601f16801561021b5780820380516001836020036101000a031916815260200191505b50848103835289818151815260200191508051906020019080838360005b83811015610254578082015181840152602081019050610239565b50505050905090810190601f1680156102815780820380516001836020036101000a031916815260200191505b50848103825288818151815260200191508051906020019080838360005b838110156102ba57808201518184015260208101905061029f565b50505050905090810190601f1680156102e75780820380516001836020036101000a031916815260200191505b509e50505050505050505050505050505060405180910390f35b34801561030d57600080fd5b50610528600480360361010081101561032557600080fd5b810190808035906020019064010000000081111561034257600080fd5b82018360208201111561035457600080fd5b8035906020019184600183028401116401000000008311171561037657600080fd5b91908080601f016020809104026020016040519081016040528093929190818152602001838380828437600081840152601f19601f820116905080830192505050505050509192919290803590602001909291908035906020019092919080359060200190929190803590602001909291908035906020019064010000000081111561040157600080fd5b82018360208201111561041357600080fd5b8035906020019184600183028401116401000000008311171561043557600080fd5b91908080601f016020809104026020016040519081016040528093929190818152602001838380828437600081840152601f19601f8201169050808301925050505050505091929192908035906020019064010000000081111561049857600080fd5b8201836020820111156104aa57600080fd5b803590602001918460018302840111640100000000831117156104cc57600080fd5b91908080601f016020809104026020016040519081016040528093929190818152602001838380828437600081840152601f19601f82011690508083019250505050505050919291929080359060200190929190505050610f3b565b005b34801561053657600080fd5b5061053f6112d7565b6040518082815260200191505060405180910390f35b60008054600181600116156101000203166002900480601f0160208091040260200160405190810160405280929190818152602001828054600181600116156101000203166002900480156105eb5780601f106105c0576101008083540402835291602001916105eb565b820191906000526020600020905b8154815290600101906020018083116105ce57829003601f168201915b505050505081565b6105fb6112dd565b600260008381526020019081526020016000206040518061016001604052908160008201548152602001600182018054600181600116156101000203166002900480601f0160208091040260200160405190810160405280929190818152602001828054600181600116156101000203166002900480156106bd5780601f10610692576101008083540402835291602001916106bd565b820191906000526020600020905b8154815290600101906020018083116106a057829003601f168201915b5050505050815260200160028201548152602001600382015481526020016004820154815260200160058201548152602001600682018054600181600116156101000203166002900480601f0160208091040260200160405190810160405280929190818152602001828054600181600116156101000203166002900480156107875780601f1061075c57610100808354040283529160200191610787565b820191906000526020600020905b81548152906001019060200180831161076a57829003601f168201915b50505050508152602001600782018054600181600116156101000203166002900480601f0160208091040260200160405190810160405280929190818152602001828054600181600116156101000203166002900480156108295780601f106107fe57610100808354040283529160200191610829565b820191906000526020600020905b81548152906001019060200180831161080c57829003601f168201915b50505050508152602001600882015481526020016009820160009054906101000a900473ffffffffffffffffffffffffffffffffffffffff1673ffffffffffffffffffffffffffffffffffffffff1673ffffffffffffffffffffffffffffffffffffffff1681526020016009820160149054906101000a900460ff161515151581525050905060008161012001519050600082600001511180156108d35750600154826000015111155b6108dc57600080fd5b8161010001513410156108ee57600080fd5b816101400151156108fe57600080fd5b3373ffffffffffffffffffffffffffffffffffffffff168173ffffffffffffffffffffffffffffffffffffffff16141561093757600080fd5b3382610120019073ffffffffffffffffffffffffffffffffffffffff16908173ffffffffffffffffffffffffffffffffffffffff168152505060018261014001901515908115158152505081600260008581526020019081526020016000206000820151816000015560208201518160010190805190602001906109bc92919061134f565b5060408201518160020155606082015181600301556080820151816004015560a0820151816005015560c0820151816006019080519060200190610a0192919061134f565b5060e0820151816007019080519060200190610a1e92919061134f565b5061010082015181600801556101208201518160090160006101000a81548173ffffffffffffffffffffffffffffffffffffffff021916908373ffffffffffffffffffffffffffffffffffffffff1602179055506101408201518160090160146101000a81548160ff0219169083151502179055509050508073ffffffffffffffffffffffffffffffffffffffff166108fc349081150290604051600060405180830381858888f19350505050158015610adc573d6000803e3d6000fd5b507ffa1e8273ab106a45df276cd57190c4acd3e68b442488d11d21b2f889e09c840960015483602001518460400151856060015186608001518760a001518860c001518960e001518a6101000151336001604051808c8152602001806020018b81526020018a815260200189815260200188815260200180602001806020018781526020018673ffffffffffffffffffffffffffffffffffffffff1673ffffffffffffffffffffffffffffffffffffffff1681526020018515151515815260200184810384528e818151815260200191508051906020019080838360005b83811015610bd5578082015181840152602081019050610bba565b50505050905090810190601f168015610c025780820380516001836020036101000a031916815260200191505b50848103835289818151815260200191508051906020019080838360005b83811015610c3b578082015181840152602081019050610c20565b50505050905090810190601f168015610c685780820380516001836020036101000a031916815260200191505b50848103825288818151815260200191508051906020019080838360005b83811015610ca1578082015181840152602081019050610c86565b50505050905090810190601f168015610cce5780820380516001836020036101000a031916815260200191505b509e50505050505050505050505050505060405180910390a1505050565b6002602052806000526040600020600091509050806000015490806001018054600181600116156101000203166002900480601f016020809104026020016040519081016040528092919081815260200182805460018160011615610100020316600290048015610d9e5780601f10610d7357610100808354040283529160200191610d9e565b820191906000526020600020905b815481529060010190602001808311610d8157829003601f168201915b505050505090806002015490806003015490806004015490806005015490806006018054600181600116156101000203166002900480601f016020809104026020016040519081016040528092919081815260200182805460018160011615610100020316600290048015610e545780601f10610e2957610100808354040283529160200191610e54565b820191906000526020600020905b815481529060010190602001808311610e3757829003601f168201915b505050505090806007018054600181600116156101000203166002900480601f016020809104026020016040519081016040528092919081815260200182805460018160011615610100020316600290048015610ef25780601f10610ec757610100808354040283529160200191610ef2565b820191906000526020600020905b815481529060010190602001808311610ed557829003601f168201915b5050505050908060080154908060090160009054906101000a900473ffffffffffffffffffffffffffffffffffffffff16908060090160149054906101000a900460ff1690508b565b6000885111610f4957600080fd5b60008111610f5657600080fd5b60016000815480929190600101919050555060405180610160016040528060015481526020018981526020018881526020018781526020018681526020018581526020018481526020018381526020018281526020013373ffffffffffffffffffffffffffffffffffffffff1681526020016000151581525060026000600154815260200190815260200160002060008201518160000155602082015181600101908051906020019061100a92919061134f565b5060408201518160020155606082015181600301556080820151816004015560a0820151816005015560c082015181600601908051906020019061104f92919061134f565b5060e082015181600701908051906020019061106c92919061134f565b5061010082015181600801556101208201518160090160006101000a81548173ffffffffffffffffffffffffffffffffffffffff021916908373ffffffffffffffffffffffffffffffffffffffff1602179055506101408201518160090160146101000a81548160ff0219169083151502179055509050507fb0832c1d80c81c58a7acdeec81e257d69bccb58b4dccfbbde1a5e715c22f75036001548989898989898989336000604051808c8152602001806020018b81526020018a815260200189815260200188815260200180602001806020018781526020018673ffffffffffffffffffffffffffffffffffffffff1673ffffffffffffffffffffffffffffffffffffffff1681526020018515151515815260200184810384528e818151815260200191508051906020019080838360005b838110156111bb5780820151818401526020810190506111a0565b50505050905090810190601f1680156111e85780820380516001836020036101000a031916815260200191505b50848103835289818151815260200191508051906020019080838360005b83811015611221578082015181840152602081019050611206565b50505050905090810190601f16801561124e5780820380516001836020036101000a031916815260200191505b50848103825288818151815260200191508051906020019080838360005b8381101561128757808201518184015260208101905061126c565b50505050905090810190601f1680156112b45780820380516001836020036101000a031916815260200191505b509e50505050505050505050505050505060405180910390a15050505050505050565b60015481565b604051806101600160405280600081526020016060815260200160008152602001600081526020016000815260200160008152602001606081526020016060815260200160008152602001600073ffffffffffffffffffffffffffffffffffffffff1681526020016000151581525090565b828054600181600116156101000203166002900490600052602060002090601f016020900481019282601f1061139057805160ff19168380011785556113be565b828001600101855582156113be579182015b828111156113bd5782518255916020019190600101906113a2565b5b5090506113cb91906113cf565b5090565b6113f191905b808211156113ed5760008160009055506001016113d5565b5090565b9056fea265627a7a72315820f4d67fdc7096676c733c2d4e6d95cf48e4a2653d81c8b507069b5b85ebdc278864736f6c63430005100032",
  "source": "pragma solidity ^0.5.0;\r\n\r\ncontract Marketplace {\r\n    string public name;\r\n    uint public productCount = 0;\r\n    mapping(uint => Product) public products;\r\n\r\n    struct Product {\r\n        uint id;\r\n        string name;\r\n        uint bed;\r\n        uint bath;\r\n        uint acreLot;\r\n        uint housesize;\r\n        string houseAddress;\r\n        string image;\r\n        uint price;\r\n        address payable owner;\r\n        bool purchased;\r\n    }\r\n\r\n    event ProductCreated(\r\n        uint id,\r\n        string name,\r\n        uint bed,\r\n        uint bath,\r\n        uint acreLot,\r\n        uint housesize,\r\n        string houseAddress,\r\n        string image,\r\n        uint price,\r\n        address payable owner,\r\n        bool purchased\r\n    );\r\n\r\n    event ProductPurchased(\r\n        uint id,\r\n        string name,\r\n        uint bed,\r\n        uint bath,\r\n        uint acreLot,\r\n        uint housesize,\r\n        string houseAddress,\r\n        string image,\r\n        uint price,\r\n        address payable owner,\r\n        bool purchased\r\n    );\r\n\r\n    constructor() public {\r\n        name = \"Realestate app\";\r\n    }\r\n\r\n    function createProduct(\r\n        string memory _name,\r\n        uint _bed,\r\n        uint _bath,\r\n        uint _acreLot,\r\n        uint _housesize,        \r\n        string memory _houseAddress,\r\n        string memory _image, \r\n        uint _price\r\n        ) public {\r\n        // Require a valid name\r\n        require(bytes(_name).length > 0);\r\n        // Require a valid price\r\n        require(_price > 0);\r\n        // Increment product count\r\n        productCount ++;\r\n        // Create the product\r\n        products[productCount] = Product(\r\n            productCount,\r\n            _name,\r\n            _bed,\r\n            _bath,\r\n            _acreLot,\r\n            _housesize,\r\n            _houseAddress,\r\n            _image,\r\n            _price,\r\n            msg.sender,\r\n            false);\r\n        // Trigger an event\r\n        emit ProductCreated(\r\n            productCount, \r\n            _name,\r\n            _bed,\r\n            _bath,\r\n            _acreLot,\r\n            _housesize,\r\n            _houseAddress,\r\n            _image, \r\n            _price, \r\n            msg.sender, \r\n            false);\r\n    }\r\n\r\n    function purchaseProduct(uint _id) public payable {\r\n        // Fetch the product\r\n        Product memory _product = products[_id];\r\n        // Fetch the owner\r\n        address payable _seller = _product.owner;\r\n        // Make sure the product has a valid id\r\n        require(_product.id > 0 && _product.id <= productCount);\r\n        // Require that there is enough Ether in the transaction\r\n        require(msg.value >= _product.price);\r\n        // Require that the product has not been purchased already\r\n        require(!_product.purchased);\r\n        // Require that the buyer is not the seller\r\n        require(_seller != msg.sender);\r\n        // Transfer ownership to the buyer\r\n        _product.owner = msg.sender;\r\n        // Mark as purchased\r\n        _product.purchased = true;\r\n        // Update the product\r\n        products[_id] = _product;\r\n        // Pay the seller by sending them Ether\r\n        address(_seller).transfer(msg.value);\r\n        // Trigger an event\r\n        emit ProductPurchased(\r\n            productCount,\r\n            _product.name,\r\n            _product.bed,\r\n            _product.bath,\r\n            _product.acreLot,\r\n            _product.housesize,\r\n            _product.houseAddress,\r\n            _product.image,\r\n            _product.price,\r\n            msg.sender,\r\n             true\r\n        );\r\n    }\r\n}\r\n",
  "sourcePath": "D:\\Final BTP\\BTP_8\\src\\contracts\\Marketplace.sol",
  "compiler": {
    "name": "solc",
    "version": "0.5.16+commit.9c3226ce.Emscripten.clang"
  },
  "schemaVersion": "3.4.13",
  "updatedAt": "2023-04-25T16:52:45.537Z",
  "networkType": "ethereum",
  "devdoc": {
    "methods": {}
  },
  "userdoc": {
    "methods": {}
  }
}